:020000040800F2
:100000000008002001C0000841D4000841D40008C5
:1000100041D4000841D4000841D4000841D400086C
:1000200041D4000841D4000841D4000821E300086D
:1000300041D4000841D4000841D40008F1F600087A
:1000400041D4000841D4000841D4000841D400083C
:1000500041D4000841D4000841D4000841D400082C
:1000600041D4000841D4000841D4000881F10008BF
:10007000B1F10008E1F1000811F2000841F20008B6
:1000800071F20008A1F20008711A010851F8000885
:1000900091F8000801F9000871F9000841D400083E
:1000A00041D4000841D4000841D4000841D40008DC
:1000B00041D4000801110108B11A010841D4000817
:1000C00041D4000871FF00087100010841D4000804
:1000D00041D4000841D4000841D40008D1140108DB
:1000E000911A010841D4000841D4000841D4000805
:1000F00041D4000841D40008E11A0108D1F20008F7
:1001000041D4000841D4000841D4000841D400087B
:1001100041D4000841D4000841D4000841D400086B
:1001200001F3000831F3000861F3000891F30008BF
:10013000C1F3000841D4000841D4000841D40008AC
:1001400041D4000841D4000841D40008E10E010860
:10015000F1F3000821F4000851F40008F11401083B
:1001600041D4000841D4000841D4000841D400081B
:1001700041D4000841D4000841D4000841D400080B
:1001800041D4000841D4000841D4000841D40008FB
:1001900041D4000841D4000841D4000841D40008EB
:1001A00041D4000841D4000841D4000841D40008DB
:1001B00041D4000841D4000841D4000841D40008CB
:10C0000072B6334880F3098840F20000CCF2000099
:10C010004EF63471CEF200010860BFF34F8FBFF3CC
:10C020006F8F40F20000C0F2F0004EF68851CEF261
:10C0300000010860BFF34F8FBFF36F8F4FF0000018
:10C04000E1EE100A4EF63C71CEF2000108600620C7
:10C0500080F31488BFF36F8F01F0DAF905F090FBDD
:10C060004FF055301B491C4A91423CBF41F8040B2C
:10C07000FAE71A49164A91423CBF41F8040BFAE725
:10C080001749184A184B9A423EBF51F8040B42F820
:10C09000040BF8E700201549154A91423CBF41F8CE
:10C0A000040BFAE701F0BCF9124C134DAC4203DA71
:10C0B00054F8041B8847F9E705F01AFC0F4C104DA3
:10C0C000AC4203DA54F8041B8847F9E701F0B0B931
:10C0D00000100020000000200008002000080020C0
:10C0E00018110308001000203C1A0020401A0020FC
:10C0F000D026012000C0000800C0000800C00008D1
:10C1000000C0000800000000000000000000000067
:10C110002DE9F04F2DED108AC1F80CD0D0F80CD0DD
:10C12000BDEC108ABDE8F08F002383F31188284608
:10C13000A047002001F084FC01F0B2FB00DFFEE725
:10C1400081F0004102E000BF83F0004330B54FEAC8
:10C1500041044FEA430594EA050F08BF90EA020F35
:10C160001FBF54EA000C55EA020C7FEA645C7FEAC8
:10C17000655C00F0E2804FEA5454D4EB5555B8BFEB
:10C180006D420CDD2C4480EA020281EA030382EA5C
:10C19000000083EA010180EA020281EA0303362DEE
:10C1A00088BF30BD11F0004F4FEA01314FF4801CC1
:10C1B0004CEA113102D0404261EB410113F0004FD3
:10C1C0004FEA03334CEA133302D0524263EB43038A
:10C1D00094EA050F00F0A780A4F10104D5F1200E28
:10C1E0000DDB02FA0EFC22FA05F2801841F1000183
:10C1F00003FA0EF2801843FA05F359410EE0A5F157
:10C2000020050EF1200E012A03FA0EFC28BF4CF087
:10C21000020C43FA05F3C01851EBE37101F000453D
:10C2200007D54FF0000EDCF1000C7EEB00006EEB4A
:10C230000101B1F5801F1BD3B1F5001F0CD34908D4
:10C240005FEA30004FEA3C0C04F101044FEA44522B
:10C2500012F5800F80F09A80BCF1004F08BF5FEAB2
:10C26000500C50F1000041EB045141EA050130BD92
:10C270005FEA4C0C404141EB010111F4801FA4F135
:10C280000104E9D191F0000F04BF01460020B1FA8A
:10C2900081F308BF2033A3F10B03B3F120020CDAC2
:10C2A0000C3208DD02F1140CC2F10C0201FA0CF0A0
:10C2B00021FA02F10CE002F11402D8BFC2F1200C05
:10C2C00001FA02F120FA0CFCDCBF41EA0C019040BB
:10C2D000E41AA2BF01EB0451294330BD6FEA040404
:10C2E0001F3C1CDA0C340EDC04F11404C4F12002EF
:10C2F00020FA04F001FA02F340EA030021FA04F301
:10C3000045EA030130BDC4F10C04C4F1200220FA57
:10C3100002F001FA04F340EA0300294630BD21FA95
:10C3200004F0294630BD94F0000F83F4801306BF5B
:10C3300081F480110134013D4EE77FEA645C18BF4F
:10C340007FEA655C29D094EA050F08BF90EA020FE6
:10C3500005D054EA000C04BF1946104630BD91EADE
:10C36000030F1EBF0021002030BD5FEA545C05D1E1
:10C370004000494128BF41F0004130BD14F5800420
:10C380003CBF01F5801130BD01F0004545F0FE4194
:10C3900041F470014FF0000030BD7FEA645C1ABFC9
:10C3A000194610467FEA655C1CBF0B46024650EA00
:10C3B000013406BF52EA033591EA030F41F400212C
:10C3C00030BD00BF90F0000F04BF0021704730B5B2
:10C3D0004FF4806404F132044FF000054FF0000187
:10C3E00050E700BF90F0000F04BF0021704730B548
:10C3F0004FF4806404F1320410F0004548BF40421D
:10C400004FF000013EE700BF42004FEAE2014FEA71
:10C4100031014FEA02701FBF12F07F4393F07F4F4C
:10C4200081F06051704792F0000F14BF93F07F4F7E
:10C43000704730B54FF4607401F0004521F00041C1
:10C4400020E700BF50EA010208BF704730B54FF047
:10C4500000050AE050EA010208BF704730B511F04C
:10C46000004502D5404261EB41014FF4806404F184
:10C4700032045FEA915C3FF4DCAE4FF003025FEA06
:10C48000DC0C18BF03325FEADC0C18BF033202EB8E
:10C49000DC02C2F1200300FA03FC20FA02F001FAE8
:10C4A00003FE40EA0E0021FA02F11444C1E600BF87
:10C4B00070B54FF0FF0C4CF4E06C1CEA11541DBF3A
:10C4C0001CEA135594EA0C0F95EA0C0F00F0DEF805
:10C4D0002C4481EA030621EA4C5123EA4C5350EAEA
:10C4E000013518BF52EA033541F4801143F480133B
:10C4F00038D0A0FB02CE4FF00005E1FB02E506F0CC
:10C500000042E0FB03E54FF00006E1FB03569CF020
:10C51000000F18BF4EF0010EA4F1FF04B6F5007F26
:10C5200064F5407404D25FEA4E0E6D4146EB060698
:10C5300042EAC62141EA55514FEAC52040EA5E5021
:10C540004FEACE2EB4F1FD0C88BFBCF5E06F1ED8CB
:10C55000BEF1004F08BF5FEA500E50F1000041EB02
:10C56000045170BD06F0004646EA010140EA0200AF
:10C5700081EA0301B4EB5C04C2BFD4EB0C0541EAD1
:10C58000045170BD41F480114FF0000E013C00F3E6
:10C59000AB8014F1360FDEBF002001F0004170BD0A
:10C5A000C4F10004203C35DA0C341BDC04F1140423
:10C5B000C4F1200500FA05F320FA04F001FA05F2AF
:10C5C00040EA020001F0004221F0004110EBD3707C
:10C5D00021FA04F642EB06015EEA430E08BF20EAA8
:10C5E000D37070BDC4F10C04C4F1200500FA04F34B
:10C5F00020FA05F001FA04F240EA020001F00041DD
:10C6000010EBD37041F100015EEA430E08BF20EA4F
:10C61000D37070BDC4F1200500FA05F24EEA020E97
:10C6200020FA04F301FA05F243EA020321FA04F0C6
:10C6300001F0004121FA04F220EA020000EBD3707D
:10C640005EEA430E08BF20EAD37070BD94F0000F7D
:10C650000FD101F00046400041EB010111F4801FB1
:10C6600008BF013CF7D041EA060195F0000F18BF62
:10C67000704703F00046520043EB030313F4801F9E
:10C6800008BF013DF7D043EA0603704794EA0C0F58
:10C690000CEA135518BF95EA0C0F0CD050EA41066E
:10C6A00018BF52EA4306D1D181EA030101F00041EB
:10C6B0004FF0000070BD50EA410606BF1046194613
:10C6C00052EA430619D094EA0C0F02D150EA01361F
:10C6D00013D195EA0C0F05D152EA03361CBF104660
:10C6E00019460AD181EA030101F0004141F0FE41FF
:10C6F00041F470014FF0000070BD41F0FE4141F483
:10C70000780170BD70B54FF0FF0C4CF4E06C1CEA82
:10C7100011541DBF1CEA135594EA0C0F95EA0C0F37
:10C7200000F0A7F8A4EB050481EA030E52EA0335F2
:10C730004FEA013100F088804FEA03334FF0805513
:10C7400045EA131343EA12634FEA022245EA111540
:10C7500045EA10654FEA00260EF000419D4208BFF1
:10C76000964244F1FD0404F5407402D25B084FEA9E
:10C770003202B61A65EB03055B084FEA32024FF44A
:10C7800080104FF4002CB6EB020E75EB030E22BFA7
:10C79000B61A754640EA0C005B084FEA3202B6EB67
:10C7A000020E75EB030E22BFB61A754640EA5C0016
:10C7B0005B084FEA3202B6EB020E75EB030E22BFA6
:10C7C000B61A754640EA9C005B084FEA3202B6EBA7
:10C7D000020E75EB030E22BFB61A754640EADC0066
:10C7E00055EA060E18D04FEA051545EA16754FEAC8
:10C7F00006164FEAC30343EA52734FEAC2025FEAE6
:10C800001C1CC0D111F4801F0BD141EA00014FF074
:10C8100000004FF0004CB6E711F4801F04BF014345
:10C820000020B4F1FD0C88BFBCF5E06F3FF6AFAE61
:10C83000B5EB030C04BFB6EB020C5FEA500C50F1F1
:10C84000000041EB045170BD0EF0004E4EEA113174
:10C8500014EB5C04C2BFD4EB0C0541EA045170BD7B
:10C8600041F480114FF0000E013C90E645EA060EBF
:10C870008DE60CEA135594EA0C0F08BF95EA0C0FED
:10C880003FF43BAF94EA0C0F0AD150EA01347FF435
:10C8900034AF95EA0C0F7FF425AF104619462CE70C
:10C8A00095EA0C0F06D152EA03353FF4FDAE10466F
:10C8B000194622E750EA410618BF52EA43067FF4C0
:10C8C000C5AE50EA41047FF40DAF52EA43057FF450
:10C8D000EBAE12E7000000000000000000000000C6
:10C8E0004FF0FF3C06E000BF4FF0010C02E000BF3C
:10C8F0004FF0010C4DF804CD4FEA410C7FEA6C5C1F
:10C900004FEA430C18BF7FEA6C5C1BD001B050EAC1
:10C91000410C0CBF52EA430C91EA030F02BF90EAAC
:10C92000020F0020704710F1000F91EA030F58BF6B
:10C93000994208BF90422CBFD8176FEAE37040F0CD
:10C94000010070474FEA410C7FEA6C5C02D150EA6B
:10C95000013C07D14FEA430C7FEA6C5CD6D152EA26
:10C96000033CD3D05DF8040B704700BF84461046EB
:10C9700062468C461946634600E000BF01B5FFF7EA
:10C98000B7FF002848BF10F1000F01BD4DF808EDBA
:10C99000FFF7F4FF0CBF012000205DF808FB00BF8B
:10C9A0004DF808EDFFF7EAFF34BF012000205DF8E5
:10C9B00008FB00BF4DF808EDFFF7E0FF94BF012032
:10C9C00000205DF808FB00BF4DF808EDFFF7CEFF33
:10C9D00094BF012000205DF808FB00BF4DF808ED72
:10C9E000FFF7C4FF34BF012000205DF808FB00BF43
:10C9F0004FEA410C7FEA6C5C02D150EA013C0AD15B
:10CA00004FEA430C7FEA6C5C02D152EA033C02D14C
:10CA10004FF0000070474FF0010070470000000029
:10CA20004FEA410212F5001215D211D56FF4787356
:10CA3000B3EB625212D94FEAC12343F0004343EAF9
:10CA4000505311F0004F23FA02F018BF40427047D4
:10CA50004FF00000704750EA013005D111F000405E
:10CA600008BF6FF0004070474FF00000704700BFF4
:10CA70004FEA4102B2F1E04324BFB3F5001CDCF100
:10CA8000FE5C0DD901F0004C4FEAC0024CEA507038
:10CA9000B2F1004F40EB830008BF20F00100704767
:10CAA00011F0804F21D113F13872BCBF01F000406A
:10CAB000704741F480114FEA5252C2F11802C2F19C
:10CAC000200C10FA0CF320FA02F018BF40F001001D
:10CAD0004FEAC1234FEAD32303FA0CFC40EA0C00CF
:10CAE00023FA02F34FEA4303CCE77FEA625307D10C
:10CAF00050EA01331EBF4FF0FE4040F44000704743
:10CB000001F0004040F0FE4040F40000704700BFDC
:10CB1000844641EA000313F003036DD1403A41D348
:10CB200051F8043B40F8043B51F8043B40F8043B07
:10CB300051F8043B40F8043B51F8043B40F8043BF7
:10CB400051F8043B40F8043B51F8043B40F8043BE7
:10CB500051F8043B40F8043B51F8043B40F8043BD7
:10CB600051F8043B40F8043B51F8043B40F8043BC7
:10CB700051F8043B40F8043B51F8043B40F8043BB7
:10CB800051F8043B40F8043B51F8043B40F8043BA7
:10CB900051F8043B40F8043B51F8043B40F8043B97
:10CBA000403ABDD2303211D351F8043B40F8043B37
:10CBB00051F8043B40F8043B51F8043B40F8043B77
:10CBC00051F8043B40F8043B103AEDD20C3205D347
:10CBD00051F8043B40F8043B043AF9D2043208D03F
:10CBE000D2071CBF11F8013B00F8013B01D30B88B1
:10CBF00003806046704700BF082A13D38B078DD08F
:10CC000010F003038AD0C3F10403D21ADB071CBF60
:10CC100011F8013B00F8013B80D331F8023B20F8CA
:10CC2000023B7BE7043AD9D3013A11F8013B00F803
:10CC3000013BF9D20B7803704B7843708B7883708B
:10CC40006046704700000000000000000000000087
:10CC5000A2EB0300704700BF02780B78012A28BFBF
:10CC60009A42F5D16DE9044540EA0104CDE9026735
:10CC70006FF0000C4FEA447212B380EA010414F022
:10CC8000070F6AD100F0070420F0070004F0030545
:10CC900021F007014FEAC505F0E8042314F0040F62
:10CCA000F1E804670CFA05F462EA040266EA040695
:10CCB0000AD063EA0403624667EA0407664603E0B3
:10CCC000F0E80423F1E8046782FA4CF582EA0604EE
:10CCD000A4FA8CF46CBB83FA4CF583EA0705A5FA39
:10CCE0008CF595B950E9022351E9026782FA4CF5B7
:10CCF00082EA0604A4FA8CF483FA4CF583EA070569
:10CD0000A5FA8CF52543DBD09CB92DBAB5FA85F48C
:10CD100024F0070427FA04F1DDE9026723FA04F39B
:10CD200003F0FF0001F0FF01FDE80445A0EB010066
:10CD3000704724BAB4FA84F424F0070426FA04F104
:10CD4000DDE9026722FA04F202F0FF0001F0FF01C0
:10CD5000FDE80445A0EB0100704714F0030F3CD13F
:10CD600010F0030428D150F8082B51F8083B82FA40
:10CD70004CF582EA0305A5FA8CF55DB950F8042C50
:10CD800051F8043C82FA4CF582EA0305A5FA8CF5C9
:10CD9000002DE8D02DBAB5FA85F424F0070423FA63
:10CDA00004F122FA04F202F0FF0001F0FF01FDE8B5
:10CDB0000445A0EB010070474FEAC40420F00300D3
:10CDC00050F8082B21F0030151F8083B0CFA04F449
:10CDD00062EA040263EA0403C9E710F003041AD00C
:10CDE000A1EB040120F00300E40750F8042B06D067
:10CDF0000FD28B785FFAA2F4E41A06D12BB1CB786C
:10CE00005FFAB2F4E41A00D11BB920465DF8104B6A
:10CE1000704701F1040150F8042BCC0721F0030105
:10CE200051F8043B48D824D222F07F4482FA4CF5D2
:10CE300094EA1325A5FA8CF50AD165B951F8043B9B
:10CE400084EA0204B4EB036F0ED150F8042BEBE735
:10CE50004FEA132355E035F07F454DD10878FDE8C2
:10CE60000445C0F1000070474FEA126203F0FF036F
:10CE700047E002EA1C4482FA4CF594EA1345A5FA0D
:10CE80008CF50AD165B951F8043B84EA0204B4EB8D
:10CE9000034F0CD150F8042BEBE74FEA134330E07B
:10CEA00015EA1C4528D10B884FEA124229E04FEAC7
:10CEB000124203EA1C4324E002F0FF0482FA4CF51C
:10CEC00094EA1365A5FA8CF50AD165B951F8043BCB
:10CED00084EA0204B4EB032F09D150F8042BEBE7EA
:10CEE0004FEA13630DE015F0FF0F05D10B684FEA11
:10CEF000122223F07F4304E04FF00000FDE80445D8
:10CF0000704712BA1BBA82FA4CF482EA0304A4FAFC
:10CF10008CF5B5FA85F402FA04F203FA04F34FEA49
:10CF20001260FDE80445A0EB1360704700000000AC
:10CF300090F800F06DE9024520F007016FF0000C59
:10CF400010F0070491F820F040F049804FF0000401
:10CF50006FF00700D1E9002391F840F000F10800DC
:10CF600082FA4CF2A4FA8CF283FA4CF3A2FA8CF314
:10CF70004BBBD1E9022382FA4CF200F10800A4FA7B
:10CF80008CF283FA4CF3A2FA8CF3E3B9D1E90423CF
:10CF900082FA4CF200F10800A4FA8CF283FA4CF306
:10CFA000A2FA8CF37BB9D1E9062301F1200182FAC0
:10CFB0004CF200F10800A4FA8CF283FA4CF3A2FAC6
:10CFC0008CF3002BC6D0002A04BF04301A4612BAD4
:10CFD000B2FA82F2FDE8024500EBD2007047D1E9D7
:10CFE000002304F00305C4F100004FEAC50514F066
:10CFF000040F91F840F00CFA05F562EA05021CBF37
:10D0000063EA050362464FF00004A9E70000000050
:10D0100001F0FF01102A2BDB10F0070F08D010F8E9
:10D02000013B013A8B422DD010F0070F42B3F6D1ED
:10D03000F0B441EA012141EA014122F007047FF006
:10D0400000070023F0E80256083C85EA010586EA5D
:10D05000010685FA47F5A3FA87F586FA47F6A5FA99
:10D0600087F68EB9EED1F0BC01F0FF0102F00702A5
:10D0700032B110F8013B013A83EA010313B1F8D150
:10D080000020704701387047002D06BF3546033831
:10D09000073815F0010F07D1013015F4807F02BF6A
:10D0A000013015F4C03F0130F0BC0138704700BFBB
:10D0B0004A0011D212F5001211D20DD56FF4787317
:10D0C000B3EB62520ED44FEAC12343F0004343EA6C
:10D0D000505323FA02F070474FF00000704750EAB7
:10D0E000013002D14FF0FF3070474FF00000704721
:10D0F00053B94AB9002908BF00281CBF4FF0FF31BF
:10D100004FF0FF3000F07CB9ADF1080C6DE904CEB2
:10D1100000F006F8DDF804E0DDE9022304B0704712
:10D120002DE9F0478C460D460446089E002B51D150
:10D130008A4217466DD9B2FA82FEBEF1000F0BD0BB
:10D14000CEF1200C01FA0EF520FA0CFC02FA0EF7D3
:10D150004CEA050C00FA0EF44FEA174A250CBCFB0A
:10D16000FAF81FFA87F90AFB18CC45EA0C4508FBC8
:10D1700009F3AB420AD9ED1908F1FF3280F023819F
:10D18000AB4240F22081A8F102083D44ED1AA4B25E
:10D19000B5FBFAF00AFB105544EA054400FB09F917
:10D1A000A14509D9E41900F1FF3380F00A81A145B6
:10D1B00040F2078102383C44A4EB090440EA0840ED
:10D1C0000021002E61D024FA0EF400233460736035
:10D1D000BDE8F0878B4207D9002E54D0002186E8A5
:10D1E00021000846BDE8F087B3FA83F1002940F03A
:10D1F0008E80AB4202D3824200F2FA80841A65EB41
:10D2000003050120AC46002E3FD086E81010BDE893
:10D21000F08712B90127B7FBF2F7B7FA87FEBEF124
:10D22000000F34D1EB1B3A0C1FFA87FC0121B3FB32
:10D23000F2F8250C02FB183345EA03450CFB08F312
:10D24000AB4207D9ED1908F1FF3002D2AB4200F230
:10D25000D1808046ED1AA3B2B5FBF2F002FB105567
:10D2600043EA05440CFB00FCA44507D9E41900F18E
:10D27000FF3302D2A44500F2B8801846A4EB0C0498
:10D2800040EA08409DE731463046BDE8F087CEF1E0
:10D29000200405FA0EF307FA0EF720FA04F83A0C08
:10D2A00025FA04F448EA0308B4FBF2F14FEA184502
:10D2B00002FB11441FFA87FC45EA044501FB0CF30D
:10D2C000AB4200FA0EF409D9ED1901F1FF3080F0FC
:10D2D0008A80AB4240F2878002393D44EB1A1FFA44
:10D2E00088F5B3FBF2F002FB103345EA034500FB7F
:10D2F0000CF3AB4207D9ED1900F1FF386FD2AB4206
:10D300006DD902383D44EB1A40EA01418FE7C1F183
:10D31000200722FA07F88B4005FA01F448EA0303D4
:10D3200020FA07FE4FEA134CFD404EEA040EB5FB0F
:10D33000FCF94FEA1E440CFB19551FFA83F844EA26
:10D34000054509FB08F4AC4202FA01F200FA01FAC1
:10D3500008D9ED1809F1FF3043D2AC4241D9A9F107
:10D3600002091D442D1B1FFA8EFEB5FBFCF00CFBC1
:10D3700010554EEA054400FB08F8A04507D9E4180B
:10D3800000F1FF3529D2A04527D902381C4440EAD4
:10D390000940A4EB0804A0FB02894C45C6464D4653
:10D3A00015D312D056B1BAEB0E0364EB050404FAA0
:10D3B00007F7CB401F43CC40376074600021BDE8C5
:10D3C000F0871846F8E69046E0E6C245EAD2B8EBA8
:10D3D000020E69EB03050138E4E72846D7E740462B
:10D3E00091E78146BEE7014678E702383C4445E7CD
:10D3F000084608E7A8F102083D442BE700000000BA
:10D40000704700BF000000000000000000000000A6
:10D41000704700BF00000000000000000000000096
:10D42000704700BF00000000000000000000000086
:10D43000FEE700BF00000000000000000000000048
:10D44000FEE700BF00000000000000000000000038
:10D45000FEE700BF00000000000000000000000028
:10D46000204B214A2148F0B500249C60D968204E09
:10D47000204D4FF6FF0739400A43DA60F26842F068
:10D480008072F2600268202142F0010210260260E0
:10D4900083B0DE7783F8221000F002F900F080F804
:10D4A00000F066FB00F064FE00F0AAFE2846402172
:10D4B00000F006FAA5F1300301229861027784F3A7
:10D4C000118862B69B690C49996105F1500000947E
:10D4D0000A4B4FF4EC7100F04BFA094B836103B037
:10D4E000F0BD00BF00ED00E00003FA05001000E011
:10D4F000F0ED00E0701A002040EA020851D4000864
:10D5000030EA0208000000000000000000000000F7
:10D5100072B6014BD862FEE7401A002000000000FE
:10D52000F8B5134DAA69D37F0BB1013BD377116ACC
:10D53000EB69104E01311162AA6AB34202F1010295
:10D54000AA6213D09C68013C9C607CB920271A68B1
:10D55000D968DC605660EA6184F3118818698847ED
:10D5600087F31188EB699A68002AF0D0F8BD00BFF4
:10D57000401A00205C1A002000000000000000009B
:10D58000034A516853685B1A9842FBD8704700BF42
:10D59000001000E00000000000000000000000009B
:10D5A000054B4FF0FF3003F11C02002158629962D5
:10D5B000DA611A62704700BF401A002000000000C4
:10D5C00070B40D4EF469A5680361A942C26004D924
:10D5D0002468491BA5688D42FAD3636843600460E0
:10D5E000186060608160A3684FF0FF32591AA16033
:10D5F000726270BC704700BF401A0020000000003B
:10D60000036841689A6830B48568064C2A449A6079
:10D610000B60056800224FF0FF336960C2606362EF
:10D6200030BC7047401A00200000000000000000DD
:10D63000202383F31188037F072B0ED8DFE803F044
:10D64000280D0D2408040D08426A93680133936085
:10D6500090E80C001A600268536010B400224FF08A
:10D66000FF3481680C4B446202771B689A688A42D7
:10D67000FBD25A684260036000211060586081F359
:10D6800011885DF8044B7047436A00221A60E4E792
:10D69000002383F311887047401A00200000000027
:10D6A000034B00221B605B601B615B619A607047EB
:10D6B000401A0020000000000000000000000000F0
:10D6C00000228168084B10B4044602771B689A68F0
:10D6D0008A42FBD25A6862602360204614605C6014
:10D6E0005DF8044B704700BF401A002000000000A6
:10D6F000084B99691A6810B408770420C877106835
:10D70000186001244360147710465DF8044B9A6159
:10D71000FEF7FEBC401A00200000000000000000E0
:10D7200030B54B1C87B012D00C4C0D4AA36905468E
:10D7300001A8FFF745FF2846FFF7DAFF049B13B166
:10D7400001A8FFF75DFFA369586A07B030BD034C1D
:10D75000FFF7CEFFA369586A07B030BD401A00201A
:10D7600031D60008000000000000000000000000AA
:10D77000144B70B404469D694162A868A168814257
:10D780004FF000020BD822771B689A689142FBD9B0
:10D790005A686260236014605C6070BC70472A77CE
:10D7A0001A46126891688842FBD950686860012661
:10D7B0002A60056055602677294620469C6170BC2A
:10D7C000FEF7A6BC401A0020000000000000000088
:10D7D000084A93691168DA7F88689B6822B9984281
:10D7E00034BF002001207047984294BF00200120E0
:10D7F000704700BF401A0020000000000000000039
:10D800000E4A1068F0B40368946913600127042677
:10D810000025A1685A6007779061E677257700E0D8
:10D820001B689A689142FBD95A686260236021465E
:10D8300014605C60F0BCFEF76BBC00BF401A0020B7
:10D840000D4A106870B403689469136001260025BE
:10D85000A1685A6006779061257700E01B689A6896
:10D860009142FBD35A6862602360214614605C6079
:10D8700070BCFEF74DBC00BF401A00200000000045
:10D88000044B1A689B6992689B689A4200D870475B
:10D89000FFF7D6BF401A0020000000000000000083
:10D8A000034B9B69DB7F0BB1FFF7CABFFFF7A8BF34
:10D8B000401A0020000000000000000000000000EE
:10D8C000F0B50F4C0164656981600226002206777D
:10D8D00000F12C014FF0040E012700F128064561EC
:10D8E000046180F81FE087774277C2638263026237
:10D8F0008261286160618662C1620163F0BD00BF20
:10D90000401A00200000000000000000000000009D
:10D910006439F0B50144124E124D7769C1600B6451
:10D92000059B4B6402230D664FF0040E8260026477
:10D93000037700F12C020023012500F12801066184
:10D94000476180F81FE085774377C3638363036291
:10D950008361386181627061C2620263F0BD00BFA1
:10D96000401A002029C1000800000000000000004B
:10D97000F8B51D460446202383F311886439014419
:10D98000134E144B7769C1600D64069D4D640B66A0
:10D9900002250423826002640577C377002500F125
:10D9A0002C0300F128020121817706614761457748
:10D9B000C563856305628561294638618262C362F9
:10D9C00003637061FFF7D4FE85F311882046F8BD2C
:10D9D000401A002029C100080000000000000000DB
:10D9E00008B50146202383F311880820FFF798FE2D
:10D9F000002383F3118808BD000000000000000030
:10DA000038B50E4B9C69A36A606204F128059D42FB
:10DA100007D01A68A2621846FFF752FEA36AAB420B
:10DA2000F7D1637F9B0704D1636922691A61226978
:10DA300053610F20BDE83840FFF75ABE401A00205E
:10DA4000202383F31188FFF7DBBF00BF0000000035
:10DA500010B5054CA369036002465A620320FFF724
:10DA600047FEA369586A10BD401A0020000000005C
:10DA7000054B02469B6921B1036003205A62FFF700
:10DA80004FBE4FF0FF307047401A002000000000EA
:10DA900003682BB10022026018465962FFF710BEDE
:10DAA000704700BF00000000000000000000000000
:10DAB00069B1084B10B4024644689B69042083E8AE
:10DAC0001400236053605DF8044BFFF729BE4FF04C
:10DAD000FF307047401A00200000000000000000E6
:10DAE00038B5036898420BD004460D461A68226088
:10DAF000184654605D62FFF7E3FD23689C42F5D150
:10DB000038BD00BF00000000000000000000000061
:10DB1000014B5B6883607047001000E0000000006C
:10DB20000F4B104A5B68C168F0B48768966F426813
:10DB3000D0E90445DB1B9B1BE41845F100050131CE
:10DB40009342C1608360C0E9044505D802689342EE
:10DB500038BF0360F0BC70474360F0BC704700BF43
:10DB6000001000E0401A002000000000000000004B
:10DB7000D0B50C4C86B000234FF0FF32684600262B
:10DB80000027A3670193029303930092CDE90467F2
:10DB9000FFF7BEFF6846FFF7C3FF029BA36706B00F
:10DBA000D0BD00BF401A00200000000000000000AF
:10DBB0000146202383F31188837F013BDBB2837707
:10DBC000002282F3118813B9037F0F2B00D0704716
:10DBD000437F03F00303012B02D0022B07D07047D1
:10DBE000436902691A610269536100F019BB436914
:10DBF00002691A610269406C536100F081BB00BF89
:10DC0000202383F31188044B1869837F01338377C2
:10DC1000002383F311887047401A002000000000A1
:10DC200010B5202383F31188074B04699C421DBF64
:10DC3000A37F0133A3770024002383F31188FFF728
:10DC4000B7FF204610BD00BF401A002000000000B2
:10DC50000023006040608360704700BF0000000048
:10DC6000304B826870B59C69002A55D0A1689368D2
:10DC70008B42054606D2137F9160062B33D0072BCB
:10DC80001DD09BB12B4603E09968A268914202D354
:10DC90001B689D42F8D15A686260236014605C6022
:10DCA00065620620BDE87040FFF722BD92E80A00D9
:10DCB0001960116810464B60FFF702FDE2E792E839
:10DCC0000900186010684360566A334602E098689D
:10DCD000884202D31B689E42F9D159685160136093
:10DCE0000A605A60CEE792E8090018601068436045
:10DCF000566A334602E09868884202D31B689E4207
:10DD0000F9D15968516013600A605A60B268A1681D
:10DD100093688B42AFD3B5E7E36BC3608460E06385
:10DD200070BD00BF401A002000000000000000008D
:10DD300008B5202383F31188FFF792FF002383F3B4
:10DD4000118808BD00000000000000000000000075
:10DD5000174B70B59D69202383F311880468C3684D
:10DD6000EB6384421DD0296C4BB11A68934203D0F7
:10DD70009268914238BF1146DB68002BF5D103460B
:10DD80002268E66BA96020461A6053609C60DE60E2
:10DD9000E363FFF795FCFFF773FD002383F311881E
:10DDA00070BD0023A360002383F3118870BD00BF02
:10DDB000401A0020000000000000000000000000E9
:10DDC00030B4202484F31188064D0468AD690C60DA
:10DDD000002401604D608A600B61CC6084F311887F
:10DDE00030BC7047401A0020000000000000000016
:10DDF000202383F31188024602E08B4207D01A46A3
:10DE000013689842F9D1002383F3118870470B6897
:10DE10001360002383F31188704700BF00000000E7
:10DE2000836B027F19430A2A816309D00B2A00D031
:10DE30007047436A8B43FBD100234362FFF740BC2A
:10DE4000436A1942F8D1704700000000000000004A
:10DE500070B50468A0420FD006460D46E3682B4318
:10DE6000E36015B12269134203D0A1686068FFF72F
:10DE7000D7FF2468A642F1D170BD00BF00000000AA
:10DE800008B5202383F31188FFF7CAFFFFF7F8FCDA
:10DE9000002383F3118808BD00000000000000008B
:10DEA00038B50C4B9D69202383F31188AB6B13EAC3
:10DEB000000406D1044668620A20FFF719FCAB6B28
:10DEC0001C4023EA0403AB63002383F3118820463C
:10DED00038BD00BF401A0020000000000000000014
:10DEE000104B70B59E69202383F31188B36B13EA3E
:10DEF00000050ED119B985F31188284670BD7062EE
:10DF000004460A20FFF70CFC0028F4DBB36B04EA9C
:10DF1000030523EA0503B363002383F3118828462E
:10DF200070BD00BF401A002000000000000000008B
:10DF300030B4029C046200250A44856002610060DE
:10DF40004060C16081614161C36130BC704700BF06
:10DF50000021C2688160826142616FF00101FFF7B8
:10DF6000BFBD00BF00000000000000000000000076
:10DF700070B520230E46044683F31188C3692BB184
:10DF8000984703E0FFF794FD002815DBA5683146AC
:10DF90002046002DF6D0A169A36825694A1C013BE3
:10DFA000AA42A360A26128BFE368087828BFA361E2
:10DFB000002383F3118870BD85F3118870BD00BF05
:10DFC0002DE9F04F044683B0894693461D46D0F8AC
:10DFD0001C80202787F3118800260197B246B8F1EC
:10DFE000000F05D02046C04702E0FFF761FDE0B911
:10DFF000A76829462046002FF7D0A269A368511CC4
:10E00000013BA161A360137809F8013B2369A26970
:10E010009A4224BFE368A3618AF311880136B345AD
:10E0200005D0019B83F31188D9E787F31188304627
:10E0300003B0BDE8F08F00BF00000000000000004A
:10E0400030B4029C04628D180561006040608260FB
:10E05000C16081614161C36130BC70470000000054
:10E0600010B40269C4688461121B44616FF001013D
:10E0700082605DF8044BFFF733BD00BF0000000075
:10E08000F8B504460F461646202383F3118803E0B3
:10E09000FFF70EFD002819DBA56831462046002D4C
:10E0A000F6D06269A368511C013B6161A3601770DF
:10E0B000236962699A4224BFE3686361E3690BB133
:10E0C00020469847002080F31188F8BD85F3118819
:10E0D000F8BD00BF000000000000000000000000CC
:10E0E0002DE9F04F83B004460D4616460193D0F853
:10E0F0001C804FF0200989F311880027BA46A368D5
:10E1000005F1010B204603B36169A3684A1C013B7A
:10E110006261A3602B780B7023696169994224BF07
:10E12000E3686361B8F1000F00D0C0478AF311883B
:10E13000013E07F1010712D089F31188A3685D46FB
:10E1400005F1010B2046002BDED1019900932046FA
:10E15000FFF7AEFC009B0028D1D083F3118838462E
:10E1600003B0BDE8F08F00BF000000000000000019
:10E17000054A064B0648074922F0070223F0070329
:10E1800002600B60704700BFD7260120000002200C
:10E190009C1C0020981C00200000000000000000D3
:10E1A00010B4202383F31188094C0A4B22681968A4
:10E1B000C31D23F00703891A8B429DBF9B18236060
:10E1C00010460020002383F311885DF8044B70474C
:10E1D0009C1C0020981C0020000000000000000093
:10E1E000024A034B10681B68C01A7047981C002035
:10E1F0009C1C002000000000000000000000000047
:10E20000044B054A1A6003F1100000229A60DA609C
:10E21000FFF71EBDA01C0020A1E1000800000000C7
:10E22000F8B550F8085C05F110070646A0F108049F
:10E2300008353846FFF77CFD2B46AB421A6801D003
:10E24000A34202D21AB1944201D31346F5E746F82D
:10E25000082C1C6016E90500B11881420AD05968E3
:10E2600001F108021A44944213D03846BDE8F84040
:10E27000FFF76EBD496802F10800014446F8041C2E
:10E28000B25846F8082C596801F108021A44944221
:10E29000EBD156F8042C08321144596056F8082C7A
:10E2A0001A603846BDE8F840FFF752BD0000000094
:10E2B00070B50F4C002818BF044604F1100528461D
:10E2C0000E46FFF735FDA36873B100221446586867
:10E2D0001B6801340244002BF9D106B13260284694
:10E2E000FFF736FD204670BD1A461C46F5E700BF15
:10E2F000A01C002000000000000000000000000042
:10E30000202383F3118803680B600023016083F3EB
:10E3100011887047000000000000000000000000AD
:10E3200080B4094A536823F0010300AF5360EFF350
:10E330000983683383F30988002383F31188BD467A
:10E340005DF8047B704700BF30EF00E00000000084
:10E3500098B5202300AF83F31188114B5B6813F449
:10E36000006302D183F3118898BDF1EE103AEFF308
:10E3700009840C4B4FF08072DB6844F8083C44F889
:10E380004C2CA4F1680383F30988FFF721FA18B134
:10E39000054B44F8503C98BD044B44F8503C98BDA4
:10E3A00000ED00E030EF00E039C100083CC100089A
:10E3B00008B501F005F90B4801F04AFC00F020F81F
:10E3C00000F0A6F800F01CF900F022FB00F030FB92
:10E3D00000F06EFB00F00CFA03F0DAF9BDE808403B
:10E3E00000F006B8D0EB02080000000000000000BA
:10E3F00001F08EB9000000000000000000000000E5
:10E4000001F0F6BA0000000000000000000000006B
:10E41000F0B40122002300F1180700F11C0600F1FE
:10E42000200500F1240400F128010270436000F18E
:10E43000080200F110038761C661056244628162CF
:10E440008260C26003614361F0BC7047000000005D
:10E4500010B52023044683F3118802230370416022
:10E4600001F0DEFA03232370002383F3118810BD2B
:10E470002DE9F0411F4604460D469046202383F3C4
:10E48000118800F108062378042B2946204602D083
:10E4900001F0FEFA50B939463046FFF709FB002873
:10E4A000F1D0002383F31188BDE8F0812046424675
:10E4B000294601F00DFB002080F31188BDE8F081B2
:10E4C0002DE9F0411F4604460D469046202383F374
:10E4D000118800F110062378042B2946204602D02B
:10E4E00001F036FB50B939463046FFF7E1FA002813
:10E4F000F1D0002383F31188BDE8F0812046424625
:10E50000294601F045FB002080F31188BDE8F08129
:10E5100001F01EBE0000000000000000000000002E
:10E5200001220023027043600C30FFF791BB00BF53
:10E5300010B52023044683F31188416001F020FECA
:10E5400002232370002383F3118810BD0000000014
:10E5500010B52023044683F3118801F0C9FE01237E
:10E560002370002383F3118810BD00BF000000005A
:10E57000F0B585B004460B9E0C9F4FF0200E8EF335
:10E5800011884FF0030E019600250A9E029700960F
:10E59000856080F800E001F033FF431C0CBF0523C9
:10E5A00002232370002383F3118805B0F0BD00BF60
:10E5B000F0B583B00446089F202585F31188002616
:10E5C000042500978660057001F0DAFE431C0CBF3D
:10E5D000052302232370002383F3118803B0F0BDC9
:10E5E0000C30FFF7A5BB00BF0000000000000000DA
:10E5F0000C30FFF7ADBB00BF0000000000000000C2
:10E6000002F0CEBD0000000000000000000000008D
:10E610000122002302704360704700BF0000000029
:10E6200010B52023044683F31188416002F0C8FD31
:10E6300002232370002383F3118810BD0000000023
:10E6400010B52023044683F3118802F019FE01233C
:10E650002370002383F3118810BD00BF0000000069
:10E6600010B52023044683F3118802F029FE03230A
:10E670002370002383F3118810BD00BF0000000049
:10E6800008B5202383F3118802F02AFE002383F3C8
:10E69000118808BD0000000000000000000000001C
:10E6A00010B5046AD4F8542213681978042900D0EC
:10E6B00010BD217A0229FBD111791A8901238B40DF
:10E6C0001A40F5D1236CE06BA16B1B1A5B1AEFD0DB
:10E6D00082F31188D4F854221179106804F13002C1
:10E6E00000F04EFA202383F31188D4F85432BDE8A9
:10E6F00010401979186800F06BBA00BF00000000E4
:10E7000038B5046AD4F8542213681978042900D063
:10E7100038BD217A0229FBD15079598901228240E2
:10E720000A40F5D103EB8003A169E069DB68656904
:10E730005B8A411A491B8B42EAD882F31188B1FBEC
:10E74000F3F1D4F8542203FB01F31068517904F17A
:10E750000C0200F005FA202383F31188D4F8543218
:10E7600059791868BDE8384000F01ABA0000000076
:10E770000C30FFF725BC00BF0000000000000000C7
:10E780000C304FF0FF33FFF71BBC00BF0000000050
:10E790003030FFF7A5BC00BF000000000000000003
:10E7A00030304FF0FF33FFF79BBC00BF000000008C
:10E7B0000C30FFF7DDBB00BF0000000000000000D0
:10E7C0000C304FF0FF31FFF7D3BB00BF000000005B
:10E7D0003030FFF755BC00BF000000000000000013
:10E7E00030304FF0FF32FFF74BBC00BF000000009D
:10E7F000704700BF000000000000000000000000A3
:10E8000010B503460E4A43F8042B82B00122044699
:10E81000009000F15401436002720A4B0C304FF437
:10E820008072FFF785FB009404F5AA7104F13000B3
:10E83000054B4FF48072FFF703FC02B010BD00BF20
:10E8400060EA020801E70008A1E6000800000000F5
:10E850000B68202282F311880A7903EB820290610F
:10E860004A79093243F822008A7912B103EB820314
:10E87000986102230372C0F85412002383F31188B5
:10E88000704700BF00000000000000000000000012
:10E8900070B5D0F8543200F10C06044630461D68BD
:10E8A000FFF756FB04F13000FFF7DAFB201D0121D2
:10E8B000FFF7CEFAD4F85432597905EB8103284694
:10E8C000DB6832465B8A00F04BF9D4F854322846B4
:10E8D0005979BDE8704000F063B900BF0000000046
:10E8E00090F8443003F06003202B01D000207047E3
:10E8F00090F84530212B03D0222B09D0202BF5D1C5
:10E90000064B836307220023C26303640120704720
:10E9100000238363C3630364012070470010002059
:10E92000F8B500EB81039C69BCB10E460546202773
:10E9300087F311880821201DFFF78AFA236CE16B09
:10E94000A26B5B1A9B1A10D105EB8603DB685A6930
:10E9500052681AB9002383F31188F8BD1B8A013B62
:10E960001340F7D183F3118802E0002282F311886B
:10E9700004F130023146284600F002F987F311888D
:10E980003146284600F024F9E4E700BF000000000B
:10E990002DE9F84301F1090350F82360BEB1804628
:10E9A0000F464FF0200989F3118804217018FFF7F2
:10E9B0004FFA08EB8703F569DB68B46972695B8A13
:10E9C0002C1BA41AA34204D9002383F31188BDE8A9
:10E9D000F883002282F31188B4FBF3F406F10C02F1
:10E9E00003FB04F33946404600F0BAF889F3118876
:10E9F0003946404600F0D4F8E6E700BF00000000CA
:10EA0000704700BF00000000000000000000000090
:10EA100002F04EBB000000000000000000000000FB
:10EA2000002301220270436083600C30FFF710B9AD
:10EA300002F06EBD000000000000000000000000B9
:10EA4000002301220270437083704360704700BF4F
:10EA500010B52023044683F31188416002F080FD45
:10EA600002232370002383F3118810BD00000000EF
:10EA700010B52023044683F3118802F021FE002301
:10EA8000012222706370A37083F3118810BD00BF50
:10EA900010B52023044683F3118802F041FE0123C0
:10EAA0006370002383F3118810BD00BF00000000D5
:10EAB00001F0F6BE000000000000000000000000B1
:10EAC0000023012202704360C36183620362C36258
:10EAD0004362036303814381704700BF000000006D
:10EAE00038B50446202383F3118800254160C560B2
:10EAF00005614561856101F0EBFE0223237085F31A
:10EB0000118838BD00000000000000000000000077
:10EB100010B52023044683F3118801F051FF01232F
:10EB20002370002383F3118810BD00BF0000000094
:10EB3000536910B42BB100241C605C609C60DC60E5
:10EB40001C6193692BB100241C605C609C60DC60DC
:10EB50001C6100EB81035DF8044BDA6001F0D0BF6B
:10EB600070B400EB81040126E468A4690025E2602A
:10EB700063602670A56070BC02F0AAB800000000B7
:10EB800070B400EB81040126E46864690025E2604A
:10EB900063602670A56070BC02F00AB90000000036
:10EBA000012270B502FA01F344899BB214EA03060C
:10EBB00001D0104670BD2343438102F011FA304664
:10EBC00070BD00BF00000000000000000000000059
:10EBD000012270B502FA01F304899BB214EA03061C
:10EBE00001D0104670BD2343038102F009FA30467C
:10EBF00070BD00BF00000000000000000000000029
:10EC0000002202210170A0F84C2080F84E2080F8EC
:10EC10004F2002814281C26002614261826180F8BC
:10EC2000342001F0F5BE00BF00000000000000002D
:10EC300070B50023044680F8343000F1440202F03D
:10EC400037F863689B68002B36D020469847002829
:10EC500032D0E56B94F8443094F84B1094F84A2085
:10EC600042EA0122AA422CBF2A46E263190600F1B9
:10EC7000AB80002A00F08B80E368A56B9B690020C5
:10EC8000042184F834100146DD605A6018709860E1
:10EC9000204602F01DF8202383F31188638913F0C6
:10ECA000010105D143F001036381204602F098F988
:10ECB000002383F3118870BD94F8443013F060068C
:10ECC0001A4611D00021204602F0C2F90021204648
:10ECD00002F0AEF963681B6813B10521204698471E
:10ECE000062384F8343070BD94F8451003F07F0596
:10ECF00045EA0125B5F5407F00F0EF8016D9B5F55E
:10ED0000C06F00F0D1802FD9B5F5106F76D040F6E6
:10ED10000242954200F0F380B5F5006FD2D104F1C4
:10ED20004F0201252664A263E56395E7022D00F0FA
:10ED3000A48040F29880B5F5807F00F08580B5F51D
:10ED4000817FBFD194F84630002BBBD194F8483076
:10ED500013F00F0115D01E06204600F1F78002F0D7
:10ED600087F994F844200CE040F202339D4258D0D9
:10ED7000B5F5A06FA6D1B4F84430B3F5A06F00F09C
:10ED8000D3800023A363E363236413062AD4E368D8
:10ED90005A690521002384F8341019461370D36092
:10EDA00053609360204602F003F8202383F3118818
:10EDB000238913F001017FF47BAF43F0010323812A
:10EDC000204602F01DF973E762B1E368A56B5B6949
:10EDD0000020012184F834100146DD605A6018706B
:10EDE0009860DFE7E3689A690321002384F8341010
:10EDF00019461370D3605360936049E794F8463026
:10EE000084F84F30002B40F0818003232370636827
:10EE10001B68002BB5D002212046984794F8442067
:10EE2000AFE794F84630002B7FF44CAF94F84830AD
:10EE300013F00F01A5D01D06204600F18C8002F0D2
:10EE4000F7F894F844209CE794F84630012B7FF4BF
:10EE500039AFB4F84C30A66323F00203E6632664AE
:10EE6000A4F84C3091E7002D46D1022004F14C0269
:10EE70002564A263E0630546EEE694F8481011F0BD
:10EE8000800F204601F00F0143D101F0F1FE01286F
:10EE900043D002287FF416AF314BA363E0632664AE
:10EEA000054694F84430D7E694F84900616894F830
:10EEB00048304D6894F8462094F8471043EA002300
:10EEC0002046A84700283FF4FDAE43680568E56387
:10EED000A363266494F84430BEE694F84630012BD0
:10EEE0007FF4F0AEB4F84C30A66343F00203E6635F
:10EEF0002664A4F84C3048E7012D7FF4E3AE194AAC
:10EF0000A26302250022E5632264A5E604232370A0
:10EF10007DE701F0BDFE0128BBD1134BA363E56380
:10EF2000266494F8443097E694F8463084F84E30DE
:10EF3000204601F0D5FD63681B6813B1012120460E
:10EF40009847032394F8442023701AE702F0A0F8AE
:10EF500094F8442015E702F07BF894F8442010E779
:10EF600080EA0208A0EA020890EA02080000000015
:10EF700090F8343010B50446062B15D8DFE803F0BE
:10EF8000043B1C0404150400002102F061F8002178
:10EF9000204602F04DF863681B6813B10521204636
:10EFA0009847062384F8343010BD036C03B19847AA
:10EFB000002384F8343010BDC3689A69032100230C
:10EFC00084F83410204619461370D3605360936060
:10EFD00001F07EFE202383F31188638913F0010181
:10EFE00005D143F001036381204601F0F9FF0023BE
:10EFF00083F3118810BD90F84B1090F84A30C26B23
:10F0000043EA01239342C368D7D9188AB2FBF0F1CF
:10F0100000FB1122002AD0D15B6911461A70DA6018
:10F020005A609A60204601F0C3FE202383F31188C2
:10F03000238913F0010105D143F001032381204608
:10F0400001F0DEFF002383F31188022384F83430BB
:10F0500010BD00BF00000000000000000000000024
:10F0600090F83420062A0CD80123934013F0670F40
:10F0700010B5044612D113F0080203D1DB061ED4EA
:10F0800010BD7047C3689B699B68002BF8D1036C67
:10F0900003B19847002384F8343010BD002101F0FB
:10F0A000D7FF0021204601F0C3FF63681B6813B13E
:10F0B000052120469847062384F8343010BDC368E4
:10F0C0005B69052180F834101A70DA605A609A6022
:10F0D000114601F06DFE202383F31188238913F07C
:10F0E000010103D0002383F3118810BD43F0010315
:10F0F0002381204601F084FFF4E700BF00000000F8
:10F10000430910B49B0000F1604404F5614403F12D
:10F110006043090103F5614300F01F000122C9B2F9
:10F1200084F8001302FA00F0C3F880015DF8044B84
:10F1300018607047000000000000000000000000A0
:10F140000849430910B4203300F01F040122084489
:10F15000A240002441F8232080F800435DF8044BCE
:10F16000704700BF00E100E0000000000000000068
:10F1700000F1604000F56D400901C9B201767047A9
:10F1800008B5074B074A196801F03D0199601368FB
:10F190000BB150689847BDE80840FFF7D9B800BFE9
:10F1A00000600240C01C00200000000000000000C1
:10F1B000084B094819688268890901F03D0110B5BA
:10F1C0008C019C600AB1C0689047BDE81040FFF711
:10F1D000BFB800BF00600240C01C0020000000005B
:10F1E000084B094819680269090C01F03D0110B586
:10F1F0000C049C600AB140699047BDE81040FFF7DD
:10F20000A7B800BF00600240C01C00200000000042
:10F21000084B094819688269890D01F03D0110B554
:10F220008C059C600AB1C0699047BDE81040FFF7AB
:10F230008FB800BF00600240C01C0020000000002A
:10F2400008B5074B07485968026A01F03D01D960CB
:10F250000AB1406A9047BDE80840FFF779B800BF9F
:10F2600000600240C01C0020000000000000000000
:10F27000084B09485968826A890901F03D0110B5B7
:10F280008C01DC600AB1C06A9047BDE81040FFF70E
:10F290005FB800BF00600240C01C002000000000FA
:10F2A000084B09485968026B090C01F03D0110B583
:10F2B0000C04DC600AB1406B9047BDE81040FFF7DA
:10F2C00047B800BF00600240C01C002000000000E2
:10F2D000084B09485968826B890D01F03D0110B552
:10F2E0008C05DC600AB1C06B9047BDE81040FFF7A9
:10F2F0002FB800BF00600240C01C002000000000CA
:10F3000008B5074B07481968026C01F03D01996088
:10F310000AB1406C9047BDE80840FFF719B800BF3C
:10F3200000640240C01C002000000000000000003B
:10F33000084B09481968826C890901F03D0110B534
:10F340008C019C600AB1C06C9047BDE81040FEF78C
:10F35000FFBF00BF00640240C01C0020000000008E
:10F36000084B09481968026D090C01F03D0110B500
:10F370000C049C600AB1406D9047BDE81040FEF758
:10F38000E7BF00BF00640240C01C00200000000076
:10F39000084B09481968826D890D01F03D0110B5CF
:10F3A0008C059C600AB1C06D9047BDE81040FEF727
:10F3B000CFBF00BF00640240C01C0020000000005E
:10F3C00008B5074B07485968026E01F03D01D96046
:10F3D0000AB1406E9047BDE80840FEF7B9BF00BFD4
:10F3E00000640240C01C002000000000000000007B
:10F3F000084B09485968826E890901F03D0110B532
:10F400008C01DC600AB1C06E9047BDE81040FEF789
:10F410009FBF00BF00640240C01C0020000000002D
:10F42000084B09485968026F090C01F03D0110B5FD
:10F430000C04DC600AB1406F9047BDE81040FEF755
:10F4400087BF00BF00640240C01C00200000000015
:10F45000084B09485968826F890D01F03D0110B5CC
:10F460008C05DC600AB1C06F9047BDE81040FEF724
:10F470006FBF00BF00640240C01C002000000000FD
:10F480000E490F4A0F48002310B40B600E4C19466A
:10F4900001E052F80C0C016044F833100133102BDA
:10F4A00002F10C02F5D10949094A5DF8044B4FF00D
:10F4B000FF338B60CB609360D3607047401D0020AA
:10F4C000BCEA020810600240C01C0020006002403C
:10F4D0000064024000000000000000000000000086
:10F4E000F8B5204F467AD7F800E0012404FA06F573
:10F4F00015EA0E0F31D11C4C45EA0E0504EBC60E81
:10F5000015F0FF0F3D6044F83620CEF8043004D0EB
:10F51000164C236B43F40013236315F47F4F16D16D
:10F5200005682B6823F01F032B602C6814F001047E
:10F53000FBD1077A46683D23BB40212733602C600E
:10F540006F6162B1807AFFF7DBFD2046F8BD074CA2
:10F55000236B43F480032363E2E72046F8BD1046A3
:10F56000F8BD00BF401D0020C01C00200038024034
:10F5700010B50446807AFFF7E3FD0C49607A0B680A
:10F580000122824023EA020313F0FF0F0B6004D133
:10F5900007490A6B22F400120A6313F47F4F04D167
:10F5A000034A136B23F48003136310BD401D002036
:10F5B00000380240000000000000000000000000D1
:10F5C000174B4FF0FF311A69002210B419611A610C
:10F5D000586959615A61186A124C60F0805018627B
:10F5E0001A62586A59625A62196C41F08051196462
:10F5F000216841F480712160196F01F44071B1F507
:10F60000007F03D04FF4803119671A67054A5DF80F
:10F61000044B536823F400735360FFF731BF00BFFE
:10F6200000380240007000400000000000000000B0
:10F630002A4A2B4B4FF080504FF440411064196020
:10F64000136843F00103136013689907FCD59368AE
:10F65000224923F003039360936893608B6813F04F
:10F660000C03FBD10A681D4802F0F9020A608B60A6
:10F670000B6843F480330B6003689B03FCD5436F36
:10F68000164A43F001034367536F9907FCD5154BA6
:10F6900053601368124943F0807313604B685A0437
:10F6A000FCD50E490B689B01FCD50F4B0F4A8A60B5
:10F6B00040F205721A608B68084A43F002038B60BF
:10F6C000936803F00C03082BFAD1536C43F4804386
:10F6D0005364536E43F480435366704700380240CE
:10F6E0000070004008544007003C02400094083875
:10F6F00008B5202383F31188FDF712FF002383F35D
:10F700001188BDE80840FEF723BE00BF00000000DE
:10F71000054B44F29F110020072259609860082190
:10F720000B201A60FFF724BD10E000E0000000008D
:10F73000F0B5434C434D236C43F000732364D5F87C
:10F7400000321B0C1B0443F0010343EA0023C5F8FD
:10F75000003200295AD00023C5F81C321846C5F8DB
:10F7600004321C46C5F80C32C5F81432C30003F14C
:10F77000804303F5C84301301C28C3F84042C3F856
:10F780004442F3D12F4D0026012713681079DC0085
:10F7900004F1804410F0010F04F5C84406F101069D
:10F7A00007FA03F305D0D5F804E243EA0E0EC5F8D4
:10F7B00004E210F0020F05D0D5F80CE243EA0E0E79
:10F7C000C5F80CE2400704D5D5F814021843C5F873
:10F7D00014029068C4F84002D068C4F84402D5F816
:10F7E0001C02B14243EA000302F11002C5F81C32C8
:10F7F000CBD11449124AD1F8003223F00103C1F8E9
:10F800000032136C23F000731364F0BDC20002F1E8
:10F810008042012302F5C842834043F00103C5F84A
:10F820004012C5F84412C2F84012C2F84412C5F89A
:10F830000412C5F81412C5F80C32C5F81C32D8E70A
:10F84000003802400064004000000000000000009A
:10F8500010B50C4C0C49E26A2023916083F31188A7
:10F86000002104F10800FEF73BF904F11C0001211E
:10F87000FEF7EEFA002383F31188BDE81040FEF78F
:10F8800067BD00BF441D0020010101000000000011
:10F8900038B5164DEB6ADC68A20711D1E3060BD52B
:10F8A000EB6A1021D960202383F311881048FEF7FA
:10F8B000CFFA002383F31188BDE83840FEF748BD36
:10F8C0005A6922F002025A61202383F31188002131
:10F8D00005F11000FEF704F905F118000121FEF70B
:10F8E000B7FA002383F31188D8E700BF441D002036
:10F8F000641D002000000000000000000000000067
:10F9000038B5164DEB6A1C69A20711D1E3060BD579
:10F91000EB6A10211961202383F311881048FEF748
:10F9200097FA002383F31188BDE83840FEF710BD35
:10F930005A6922F010025A61202383F311880021B2
:10F9400005F11000FEF7CCF805F118000221FEF7D2
:10F950007FFA002383F31188D8E700BF441D0020FD
:10F96000641D0020000000000000000000000000F6
:10F9700038B51B4DEB6A5C681C225A6022071DD407
:10F98000630717D5EA6A9369916921F07001916163
:10F9900013F0700F03F0070118BF41F00801202297
:10F9A00082F311880F4841EA0341FEF751FA002320
:10F9B00083F31188BDE83840FEF7CABC1A682846B0
:10F9C00022F00202032100F8281B20211A6081F393
:10F9D00011880021FEF73CFA002383F31188CFE75A
:10F9E000441D0020641D00200000000000000000F5
:10F9F00010B5064C2046FEF70BFD0022044BE362D7
:10FA000011460E20BDE81040FFF792BE441D0020B5
:10FA10000064004000000000000000000000000042
:10FA2000184B984210B5044615D0E36A01221A60BB
:10FA30005A68D10707D401210820FDF771FEE36A57
:10FA40005A68D207F7D562680F4950681268D861C2
:10FA50001A60596110BD0B211320FFF751FB0B21D8
:10FA60001420FFF74DFB0B211520FFF749FB0B215D
:10FA70001620FFF745FB054A136C43F0007313642F
:10FA8000D3E700BF441D00205B8F01000038024017
:10FA900003291AD8DFE801F0110C0702C36A98683D
:10FAA000C0F300707047C36A9868C0F3C0607047C5
:10FAB000C36A9868C0F380607047C36A9B6813F09C
:10FAC000E05F14BF0120002070470020704700BF96
:10FAD000032939D8DFE801F02C341E02C16A01F590
:10FAE000D071107810B48406C0F300131BD554688D
:10FAF0005B0043EAC40343F0040300F00F004860D6
:10FB000090688860D268CA6043F001030B605DF8BA
:10FB1000044B7047C16A107810B4840601F5C871AF
:10FB2000C0F30013E3D494885B0043EA4453E4E752
:10FB3000C16A8B68C3F30163183301EB0311D0E78B
:10FB4000C16A01F5C071CCE7704700BF000000003A
:10FB5000012911D00AD3022906D1C36A186910F00D
:10FB6000030018BF0120704700207047C36ADA689D
:10FB70009207F3D001207047C36AD86810F00300E1
:10FB800018BF0120704700BF000000000000000007
:10FB900010B461BBC36AD96888072FD0D3F8B0010D
:10FBA000D3F8B411D3F8B841D460D3F8BC41146190
:10FBB0002024DC60DC68A4073DD01379440864F39A
:10FBC0000413840864F3451313719B062DD59368C1
:10FBD000C00860F31C03936013795DF8044B080AB6
:10FBE00061F30303090C13711070518070470129F0
:10FBF00026D0022926D05DF8044B70471969890781
:10FC0000F9D0D3F8C001D3F8C411D3F8C841D460F7
:10FC1000D3F8CC41146120241C611C69A407CCD109
:10FC20005C6944F010045C61C7E71389400D60F320
:10FC30000A031381D0E75C6944F002045C61BCE70D
:10FC4000C36AABE7C36ADCE7000000000000000005
:10FC5000F0B5654D654C2F6B6549664A664B40F2C1
:10FC6000FF1E47EA0E072F632E6D46EA0E062E652D
:10FC7000456865608568A560C568E560056965617A
:10FC8000456925628569656205682560046A4C607E
:10FC9000446A8C60846ACC60C46A4C61046B0C62F8
:10FCA000446B4C62C4690C60C16B5160016C916023
:10FCB000416CD160816C5161C16C1162016D516206
:10FCC000816B1160826D5A60C26D9A60026EDA605B
:10FCD000426E5A61826E1A62C26E5A62426D1A6038
:10FCE000426FC3F80424826FC3F80824C26FC3F8BC
:10FCF0000C24D0F88020C3F81424D0F88420C3F852
:10FD00002024D0F88820C3F82424026FC3F80024EC
:10FD1000D0F89020C3F80428D0F89420C3F808281D
:10FD2000D0F89820C3F80C28D0F89C20C3F81428E9
:10FD3000D0F8A020C3F82028D0F8A420C3F82428A5
:10FD4000D0F88C20C3F8002803F54063D0F8AC202D
:10FD50005A60D0F8B0209A60D0F8B420DA60D0F8B9
:10FD6000B8205A61D0F8BC201A62D0F8C0205A627C
:10FD7000D0F8A8201A60D0F8C820C3F80424D0F81E
:10FD8000CC20C3F80824D0F8D020C3F80C24D0F835
:10FD9000D420C3F81424D0F8D820C3F82024D0F8F5
:10FDA000DC20C3F82424D0F8C420C3F80024D0F801
:10FDB000E420C3F80428D0F8E820C3F80828D0F8D5
:10FDC000EC20C3F80C28D0F8F020C3F81428D0F8A1
:10FDD000F420C3F82028D0F8F820C3F82428D0F85D
:10FDE000E020C3F80028F0BD0038024000000240C7
:10FDF0000004024000080240000C02400000000025
:10FE00002DE9F04F4FF00F0C02F0030EC2F3800704
:10FE1000C2F3C106C2F341150024C2F3C3124FF06E
:10FE200001094FF0030830E0D0F820B02BEA0303BB
:10FE300043EA0A030362436809FA04FA23EA0A035D
:10FE40003B4343606300D0F808A008FA03F3DB43A8
:10FE50000AEA030A4AEA060AC0F808A0D0F80CA089
:10FE600003EA0A0A4AEA050AC0F80CA0D0F800A082
:10FE700003EA0A0343EA0E030360490819D07F002E
:10FE8000B600AD004FEA8E0E013404F007039B006C
:10FE900011F0010F02FA03FA0CFA03F3EDD0072C6C
:10FEA000C2D9D0F824B02BEA030343EA0A03436221
:10FEB000C1E7BDE8F08F00BF0000000000000000B7
:10FEC00011F00C0F38B50546446B12D1296B0A6846
:10FED000136823F01F0313601368DB07FCD4087A50
:10FEE0004A683D2383401360636843F40073636092
:10FEF00038BD0248FDF70CFBE8E700BF70EB0208D5
:10FF000011F00C0F70B50646456B25D1F26A1368E7
:10FF1000196821F01F0119601C6814F00104FBD15D
:10FF2000117A52683D238B4013606B6823F4805331
:10FF30006B602B6823F480632B602B6843F40073A1
:10FF40002B60202383F3118806F11C002146FDF766
:10FF50009FFD84F3118870BD0148FDF7D9FAD5E7FC
:10FF600070EB02080000000000000000000000002C
:10FF70003A483B4A70B5446BA369656945EA034357
:10FF800023F07F4393424CD01ED8073A93423CD093
:10FF90000132934210D16268C36A22F400721B6876
:10FFA00062601A6842F001021A60626842F480528C
:10FFB00062605B68012B4BD915F00A0F18BFA3696B
:10FFC000BDE87040FEF7C4B9264A934212D002320F
:10FFD0009342F1D1C36A1B685E683EB32368028C0A
:10FFE00043F4A06342F0010202842360BDE8704044
:10FFF000FEF7AEB96368026B23F4007312686360A6
:020000040801F1
:10000000136843F001031360D6E7038C1A0A0BD080
:1000100003F0010343F0F00302F0060213432361EF
:10002000CAE7038CC3F347032361C5E7636823F47E
:1000300000736360236843F400732360202383F319
:1000400011881C303146FDF723FD86F31188B3E794
:10005000236823F480632360AEE700BF741D002093
:1000600008000300820007000000000000000000FC
:100070003348F8B5446B076B65693A6805F45F432C
:10008000DB436361136823F01F031360A9B2136895
:10009000DB07FCD43A7AC66A7F683D239340326816
:1000A0003B60136823F01F0313601368DF07FCD461
:1000B000377A72683D23BB40136011F4807318BF18
:1000C00001238E05836044BF43F0020383604A0529
:1000D0000AD5626822F400726260226843F0040369
:1000E00042F40072226083600F0544BF43F00803AE
:1000F00083604E0444BF43F020038360CC0413D5D7
:1001000043F010032904836016D4202383F311885D
:100110006FF001010B48FDF7BBFC002383F311884E
:10012000BDE8F840FEF714B92A0405D4002BECD141
:10013000BDE8F840FEF70CB943F040038360E4E704
:10014000741D0020901D0020000000000000000031
:1001500010B5074C2046FEF7E3F9064B064A6263EA
:10016000002103F13C02E161E362226310BD00BFA4
:10017000741D0020C8EA020800580040000000007A
:10018000F8B50378456B40F256428262012B40F28B
:100190001642044642623CD02B46E16A226B6068FC
:1001A0000F68D2F800E04168464E05F11002BA60CF
:1001B0004FF41064CEF808204FF4004700222F605F
:1001C0002A606C605C684FF6C0773C40077A5C60E0
:1001D0005C68B14244F02A045C6049DD3A4CA142BB
:1001E00007DC022F63D0032F54D048F6FF720D2195
:1001F0001962DA6101781A68022992B244D003299F
:100200003FD0012930D01A602B6843F001032B60E6
:10021000F8BD2E4B9842BFD12D4EC06A336A2D4A8D
:1002200043F4800300213362234631620521FFF746
:1002300057F9294A206B23460521FFF751F9336C02
:1002400043F48003336405212120FEF759FF052183
:100250002220FEF755FF616A2048A26A636B0143C2
:1002600002436162A26298E722F00A0292B2CAE7F0
:100270002B2449001A4A1C62B2FBF1F2C2F30B02B2
:10028000B7E742F00A02BEE722F0080292B242F05B
:100290000202B8E701EB810202EB8201104AB2FBD5
:1002A000F1F26FEA82426FEA924292B29FE701EB6B
:1002B00041010B4AB2FBF1F26FEA42426FEA52424D
:1002C00092B294E7A0860100801A0600741D0020F7
:1002D0000038024001FF0008C1FE00080000030EC4
:1002E00080DE80020000000000000000000000002E
:1002F0000378012B2FD0016B436B0A6870B5002483
:100300004FF400451D601C605C605C61136823F065
:100310001F0313601368DC07FCD40E7AC56A4C68AF
:100320002A683D23B3402360136823F01F03136042
:100330001368DB07FCD40446287A6A683D238340AF
:1003400013600846FFF714F9E06AFFF711F9084B4C
:100350009C4201D070BD70472120FEF7F1FE2220A3
:10036000FEF7EEFE034A136C23F480031364F1E7F7
:10037000741D002000380240000000000000000052
:100380004900F0B541F0010100250184446B85600E
:10039000DDF814E085F31188C66A416A3768144EA7
:1003A0003960FA607B602A46B76A202501E082F353
:1003B000118885F31188A369990702D423689B05E6
:1003C00007D5B36ADB1BB3F5FA7FF0D34FF0FF30EC
:1003D000F0BD636843F400736360236843F4A06373
:1003E000714623601C30BDE8F040FDF741BB00BF03
:1003F000401A002000000000000000000000000083
:100400002DE9F04349000025164607AA01849C46C1
:10041000446B856092E8044185F31188016BC76ADB
:1004200009683F68836A0B60D0F82490CE60164E4E
:10043000C1F804C0C7F80090FA60C7F804802A46E3
:10044000B76A202501E082F3118885F31188A3693A
:10045000990702D423689B0508D5B36ADB1BB3F563
:10046000FA7FF0D34FF0FF30BDE8F083636843F4C8
:1004700000736360236843F48073714623601C300B
:10048000BDE8F043FDF7F4BA401A00200000000078
:100490002DE9F04FA84BA9499A69076D916187B082
:1004A000202383F3118800F1600305938146BA4647
:1004B00099F80030012B06D0D9F85C3063B9DAF82E
:1004C0001430DB0608D4DAF81830059843F010032E
:1004D000CAF81830FDF7BCFA002686F31188B34637
:1004E000DAF8143013F0100335D0D9F850100B6A35
:1004F00003F4F012B2F5802F43D0B2F5402FEFD1C4
:1005000003F00F0209EB8202C3F30A13D26803332C
:100510009B08126AE4D001F580515C1E086842F81D
:10052000040B4FF00205DBD0012D086809D02346EB
:100530005C1E4FF0010542F8040BD1D0012D086874
:10054000F5D1023BCCD0013B0A68FCD1DAF814307B
:1005500013F01003C9D1D9F85C20012101FA0BF185
:100560001142039174D10BF101030293D9F8543075
:100570009DF808B09B689B45B2D9202383F311886E
:1005800096E703F00F0509EB8505C3F30A14EB6842
:10059000986903781BBB021D2CCAD61CE21CF61AF4
:1005A00092084FEA960615D001F58051D1F800E087
:1005B0005EB1961BB4462F467646E646013A47F8AA
:1005C000046B07D072450E68F8D1013A02D0013AA7
:1005D0000E68FCD12544C5602344836080E7C06871
:1005E00024B3426901F580512746032F06D90369D8
:1005F000934203D8C2684261032FF8D8D1F800E0D3
:1006000000232EFA03F602F1010CC0F814C0167094
:1006100002694669964224BFC2684261013F03F104
:10062000080303D0202B4269EBD1DEE7202383F3BC
:1006300011888368234483600021FDF751FAFDF798
:100640001FF9002383F31188EB6898698368C3E777
:10065000202282F31188DAF80810D9F85C20039878
:1006600021F0010122EA0002CAF80810C9F85C2052
:1006700083F3118809EB8B06F56868698168426825
:100680008A4240F2BF80D9F850402D8A4FEA4B177A
:1006900004EB070E521ADEF818190197954228BF8D
:1006A00015468AB2B5EB820F00F29F800BF1010272
:1006B000029204934FEA02380378002B40D1EB1CDE
:1006C000D0F80CE09B08444418BF724604D052F89E
:1006D000041B2160013BFAD10EEB0503C360F168F6
:1006E0004869836842681D44AA4285607BD9019BA2
:1006F000D9F85040098A04EB030E551BDEF818396F
:100700008D4228BF0D469BB2B5EB830FD4D9002292
:10071000202383F31188DAF8083043F00103CAF884
:1007200008302AB9DAF83438039A1A43CAF8342858
:10073000002383F3118819E7401A0020C0EB020858
:100740004444C068FDB1D0F810E029465FEA910C3E
:1007500028D08369BEEB030248BF03329710674578
:1007600028BF6746BA00891A002F3AD01A4453F8B6
:10077000047B27609342FAD1964582612CD8C368E6
:1007800083610029E2D1202383F3118883682B44FD
:1007900083600021FDF7A4F9FDF772F8049B83F351
:1007A00011889CE7826900231F4602F1010CC0F802
:1007B00018C01278E64502FA03F247EA02079CBF26
:1007C000C2688261013903F1080308D0202B01D0EF
:1007D0008269EAE72760B9E70029E4D1D3E7276017
:1007E000D1E71A46C8E7012292E7202383F3118854
:1007F000DAF808300BF1010243F001030292CAF863
:1008000008308FE7202383F31188DAF808300BF1E2
:10081000010243F001030292CAF8083088E700BFE2
:10082000F0B50024D1F808E025464FF0804C4FF099
:10083000FF3714E0C1F80059C218C2F81059C2F8C5
:100840000879D1F8006B002E17DBC1F8005B034478
:1008500001347445C3F8105BC3F8087B14D86301F6
:10086000C118D1F80029002AE4DAC1F800C90E46FF
:10087000D6F808299207FBD5DEE7C1F800CBD2F8FD
:10088000081BC906FBD5E2E74FF00113C0F81C387E
:10089000F0BD00BF000000000000000000000000EC
:1008A00010B5064C2046FEF70BF94FF0A043044A62
:1008B0002365002362652366636610BDB01D0020BA
:1008C000B0EB020800000000000000000000000083
:1008D0000378012B00D0704770B5314B066D9842FC
:1008E00082B0054618BF34463AD000232D482E4921
:1008F000EB654FF43412F060C6F800182020C6F8FB
:10090000003EB263FCF73CFE012323612369DB0751
:10091000FCD40C20FCF734FE2369002BFCDA002405
:10092000B460696D286DFFF77BFF6B68C6F81048EF
:10093000DB68C6F81448C6F81C486BB143F20803DC
:10094000B3616B6E4FF0FF327261D3B1B36843F0A5
:100950000103B36002B070BD4FF44053B361F0E7E0
:10096000124B5A6B42F080025A635A69002042F0DF
:1009700080025A610E2158614320FEF7C1FB2C6DA5
:10098000B3E70B4B009502224FF4067105F16800A6
:10099000FCF7BEFF6866FCF793FEFCF771FFD5E736
:1009A000B01D002040140040030020020038024027
:1009B0009104010800000000000000000000000099
:1009C00038B50378012B0ED0056D416D04462846DD
:1009D000FFF726FF094A00239442E365C5F81C3857
:1009E000AB60AB6300D038BD4320FEF7A9FB044ADF
:1009F000536B23F080035363F5E700BFB01D002065
:100A0000003802400000000000000000000000006C
:100A1000F8B5056D202307462B612C6914F02004DE
:100A2000FBD10C20FCF7ACFDD7F854E0DEF80860F1
:100A300023464FF00060FF2105EB43120133B34220
:100A4000C2F80009C2F8000BC2F80819C2F8081B66
:100A5000F2D9DEF800304FF0FF324FF00111C5F847
:100A600018283A6DC5F81C18BB65DEF800306B62BB
:100A700010231361146914F01004FBD10C20FCF74F
:100A80007FFDD5F80038114A114823F4FE63C5F8FC
:100A90000038AB6943F4402343F010030921AB61F4
:100AA000C5F81018C5F81418F860C5F8104BC5F84B
:100AB000002BC5F81049C5F80029BB6D03F11002E1
:100AC00043F48013BA65AB62F8BD00BF40800010EC
:100AD00080EB0208000000000000000000000000A1
:100AE000026D90F84E10D2F8003823F4FE6343EA0A
:100AF0000113C2F800387047000000000000000039
:100B00002DE9F0410FFA81F800EB88070D46FB68EC
:100B10001A6802F00302022A5DD0032A5DD04C4E0F
:100B20004C49012A18BF0E46046DDA68690104EBCE
:100B3000010E4FF0000CCEF810CB002A72D0B3F8A3
:100B400012E005F1580252014EEA060E44F802E0A6
:100B500005F1100CD4F81CE8012202FA0CF242EA6A
:100B60000E02C4F81C2821449A684FF0000EC1F808
:100B700010E9002A33D09A8B198A012A4FEA91038F
:100B800088BF5343826D05F13F0103EB020E04EB76
:100B9000810142EA0343AA0142F02002C0F858E072
:100BA0004B60226123699A06FCD40C20FCF7E8FC18
:100BB000FB681A8A05F1480342EA85525B01324319
:100BC000E2500121D4F81C3801FA05F51D43C4F8A0
:100BD0001C58BDE8F081204EA6E7204EA4E705F1A1
:100BE0003F0204EB8202AB011D49516043F0200338
:100BF000236123699B06FCD404EB48180C20FCF706
:100C0000BFFCD8F8003923F40043C8F80039D4F801
:100C10001C38012202FA05F523EA0503C4F81C3842
:100C2000BDE8F08104EB481205F1100CD2F800EB9E
:100C30002EF4004EC2F800EBD4F81C284FF0010E41
:100C40000EFA0CFE22EA0E02C4F81C288BE700BF45
:100C500000800410008000100080081000800C103C
:100C6000000400020000000000000000000000007E
:100C70005831036D49015B5813F4004004D013F45C
:100C8000001F14BF01200220704700BF00000000B9
:100C90004831036D49015B5813F4004004D013F44C
:100CA000001F14BF01200220704700BF0000000099
:100CB00000EB8101CB681B6A19685B6853601160A7
:100CC000704700BF000000000000000000000000AE
:100CD00000EB810370B4DE68B5696A682A6129B9DE
:100CE000402A03D94022094C6A6001E042F0C04426
:100CF000758A006D6B1E00EB41111344B3FBF5F3D5
:100D000044EAC343C1F8103B70BC70474000006028
:100D10002DE9F041254E376D07EB40130546D3F81A
:100D2000084BC3F8084B200703D5D7F81438190728
:100D30001CD4E20718D5D7F81438DB0714D506EB16
:100D40008503D9688B6958681A69904216D37389EC
:100D5000CC6816480122AA4023EA0203738129467F
:100D60002346BDE8F0411847BDE8F08106EB850356
:100D70002946DB6830465B689847DAE7121A002498
:100D80005A609C6029460948FFF7A2FF202383F39D
:100D90001188336D03EB4515D5F8003B43F08063B4
:100DA000C5F8003B84F31188BDE8F081B01D002038
:100DB00000EB810310B4DC68626953681361A3B16E
:100DC00071B1248A006D621E00EB41111A44B2FB1E
:100DD000F4F243EAC243C1F810395DF8044B70479E
:100DE000402B84BF40235360EBE7036D5DF8044B59
:100DF00003EB41114FF40023C1F81039704700BFD5
:100E00002DE9F041314F3D6D05EB40130646D3F817
:100E10000849C3F80849E10703D5D5F81038DA07BF
:100E20000AD4230606D50123D5F8342803FA06F69A
:100E3000164229D1BDE8F08107EB8003D9684B69E0
:100E400058681A69904234D2121A4FF000085A605A
:100E5000C3F8088031463846FFF7AAFF202383F302
:100E600011883A6D02EB46100123D0F8001941F0C9
:100E70000441C0F80019D2F83418B3400B43C2F84B
:100E8000343888F31188CCE7202383F31188D5F810
:100E90003428FB6D0E4822EA0602C5F834281E43AA
:100EA0000021FE65FCF7F4FD002383F31188BDE803
:100EB000F0813B89D1F808800122B24023EA020385
:100EC0003B8131463846C047ABE700BFB01D00202C
:100ED000101E0020000000000000000000000000C4
:100EE00070B53A4D2E6D7469B3691C40E1047461AC
:100EF0002DD4A20448BFD6F80838230704D56B6860
:100F0000DB680BB131489847E5062BD46003D6F86F
:100F1000185807D5E90745D4AA0748D46B074BD41E
:100F20002E074ED4240307D5E80330D4A90333D4C5
:100F30006A0326D42B0303D4BDE87040FDF708BA3A
:100F40000320FFF7E5FEBDE87040FDF701BA284633
:100F5000FDF756FE6B681B68002BCAD0002128469F
:100F60009847C6E7202383F31188B369184823F014
:100F70001003B3610021FCF78BFD002383F311887C
:100F8000C4E70220FFF7C4FE2B03D5D5D8E7002025
:100F9000FFF7BEFEA903CBD50120FFF7B9FE6A0318
:100FA000C8D5EEE70020FFF72BFFAA07B6D5012032
:100FB000FFF726FF6B07B3D50220FFF721FF2E07AF
:100FC000B0D50320FFF71CFFACE700BFB01D002029
:100FD000101E0020000000000000000000000000C3
:100FE000036D03EB4111D1F8003B43F08063C1F87E
:100FF000003B7047000000000000000000000000FF
:10100000026D10B402EB41140123D4F8000940F042
:101010000440C4F80009D2F834085DF8044B03FA20
:1010200001F10143C2F83418704700BF000000000E
:10103000036D03EB4111D1F8003B43F40013C1F8F9
:10104000003B7047000000000000000000000000AE
:10105000036D03EB4111D1F8003943F40013C1F8DB
:101060000039704700000000000000000000000090
:10107000036D03EB4111D1F8003B23F40013C1F8D9
:10108000003B70470000000000000000000000006E
:10109000036D03EB4111D1F8003923F40013C1F8BB
:1010A0000039704700000000000000000000000050
:1010B00010B50A4C0A4B4FF6FF7220461A80FDF716
:1010C000AFFC084B08480949094AE06103F12400D4
:1010D00023626062A162E26210BD00BF4C2000206A
:1010E0007C20002010EB02080030014016000106B1
:1010F00046000106000000000000000000000000A3
:1011000038B5244DEB6869681C69DA68087D1440BD
:10111000E2B2D2431A6190B960072ED52B78042B26
:1011200027D0A10712D4E40705D56B6819481B69BD
:10113000984703232B70BDE83840FDF709B9A20793
:101140000BD52B78042B04D06307ECD504232B702C
:10115000E9E78B68D3B1284698476307E3D52B7836
:10116000042BF3D16968CB68002BEFD0094898476E
:10117000ECE78B683BB128469847A107D3D52B787D
:10118000042BE3D1EEE7A007EDD4CCE76207EAD465
:10119000C9E700BF80200020000000000000000020
:1011A00010B5034C2046FDF733FA024BE36010BD47
:1011B000802000200004004000000000000000002B
:1011C000F8B50378012B04463AD0C36800221A60B0
:1011D0005A639A635A626168A26888690D7D4E6895
:1011E000B2FBF6F220F0FF00013A00274FF6FF763F
:1011F0001F61D8609A62DE620A786DB940F2012000
:10120000542198619960C2B113221A6203F1380225
:10121000343322616361F8BD4FF4817064219861B9
:1012200099603AB131221A6203F1340238332261F3
:101230006361F8BD13221A62F6E731221A62E5E70C
:101240000B4B984201D0E368C5E70A4B1A6C42F099
:1012500002021A641A6A002042F002021A6207218E
:1012600018621D20FDF74CFF034BA360EBE700BFA6
:10127000802000200038024000BD01050000000071
:1012800008B50378022B00D008BD0849C3680022C6
:1012900088421A60DA601A61F6D11D20FDF750FF0E
:1012A000034A136C23F002031364EDE7802000204F
:1012B00000380240000000000000000000000000B4
:1012C000C3685A69002042F0010205215A61186181
:1012D00019607047000000000000000000000000DE
:1012E000C268D36810B413F0FF040CD141681461D4
:1012F000087D58B1886878B143F00603096909B1DF
:1013000043F00103D3605DF8044B70478868002800
:10131000F2D143F00203F1E743F00403EEE700BF2C
:1013200001690A68136823F01F0330B4136013685F
:10133000DB07FCD40D7A4469496822683D23AB4041
:101340000B60136823F01F031360136813F001038D
:10135000FBD1257A826860683D21A940016030BCDC
:10136000D36013615361704700000000000000006B
:101370002DE9F0418468E7682668626840F20F133F
:101380001E4205461DD043681A696FF480732360BE
:10139000BAB1B3B213F0080F0CBF00211021D80767
:1013A00048BF41F00401980748BF41F008015807C1
:1013B00048BF41F02001D80548BF41F04001284610
:1013C000904772060ED57B060CD56B685B6827F0DC
:1013D00040076FF040022260E7601BB12846BDE87D
:1013E000F0411847BDE8F081000000000000000057
:1013F00011F00C0F38B504461BD161690A681368F7
:1014000023F01F0313601368DB07FCD463680D7AB5
:1014100048681A683D23AB400221036061702AB11D
:10142000204690476378022B00D038BD00236370BC
:1014300038BD0248FCF76CF8DFE700BF70EB02082C
:1014400011F00C0F70B504463BD1A3784BB963681B
:10145000DB68002B34D0218B204689B2BDE8704078
:10146000184721690A68136823F01F031360136883
:10147000DB07FCD460680D7A4E6881683D23AB4081
:1014800002253360A57039B120468847A378AB4266
:1014900016D1236960681A68C368E168002B14BF1D
:1014A0004FF488734FF480730B430025012104F13E
:1014B0001800A570D0605160136013680B4313606F
:1014C00070BD0248FCF724F8BFE700BF70EB0208CC
:1014D00008B50348FFF74CFFBDE80840FCF738BFEC
:1014E0009820002000000000000000000000000024
:1014F00008B50348FFF73CFFBDE80840FCF728BFEC
:10150000B4200020000000000000000000000000E7
:1015100070B50C4D0C4C0D4E2846FDF791FA0C4B56
:10152000AB60062204F1180330462C616B61EA605F
:10153000FDF786FA074BB36004F16C03A8343361FE
:10154000746170BD98200020BCEA0208B42000201D
:1015500000480040001401400000000000000000AE
:10156000F8B50378012B04463ED085680023A370AC
:1015700063702046FFF7D4FEA368474A93424BD0DE
:1015800002F58062934247D06268444B5169B3FBD5
:10159000F1F3AB60D768138B508B918B22692E6867
:1015A0006E68E6681268002F43F404534FF000079A
:1015B0002F6040F0400014BF4FF488774FF48077DD
:1015C00043F00C0341F0C1019BB23E4380B20127BE
:1015D00089B2183428616961EB60D4605760166085
:1015E00013683B431360F8BD2D4B98423AD02D4B06
:1015F00098421DD063681B8B03F4A053B3F5805F42
:1016000011D022696369A5681068196800222B1D32
:1016100083608B602283A9E76268234B5169B3FB27
:10162000F1F3AB60B6E7E36843F42053E360E8E727
:1016300003461E4A00690C21FDF752FF23461C4A4F
:1016400060690C21FDF74CFF1A4A536C43F02003EC
:1016500053640C214720FDF753FDE36843F02063FA
:10166000E360C7E70346114A00690C21FDF738FF24
:1016700023460F4A60690C21FDF732FF0D4A136CB7
:1016800043F4802313640C212720FDF739FDE36820
:1016900043F00063E360ADE70010014080DE8002AC
:1016A00098200020B420002000BD0105411401084D
:1016B000F1130108003802400000000000000000A3
:1016C0000278022A00D0704710B50446FFF728FEC2
:1016D0002069FDF74DFF6069FDF74AFF0C4B9C4206
:1016E0000CD00C4B9C4200D010BD4720FDF728FDCC
:1016F000094A536C23F020035364F5E72720FDF7D4
:101700001FFD054A136C23F48023136410BD00BF32
:1017100098200020B4200020003802400000000083
:1017200030B443694568C4681B686D68DA6044F486
:101730008A6459601C603DB182686FF0400111609D
:10174000D16841F04001D1601A6842F001021A608C
:1017500030BC7047000000000000000000000000E6
:1017600010B504460846FCF71BFD00B110BD0C2364
:1017700023604FF0FF3010BD0000000000000000AB
:10178000FDF756BF00000000000000000000000050
:10179000704700BF000000000000000000000000D3
:1017A00008B5054B054A9B699A6104F031FD0A2092
:1017B000FCF716F9F9E700BF401A0020E0EC020838
:1017C00038B5474B474A9B692DED048BDFED468AC0
:1017D0009FED468A9A6109F07BFE02280CBFB7EEA6
:1017E000000AB0EE680A002000F002FE09F058FE80
:1017F0000546002841D00024B7EE000A012000F081
:10180000F7FD40F6C410FCF7EBF80120B0EE480AF3
:10181000044400F0EDFD40F6C410FCF7E1F8A542E9
:10182000EAD141F28830FCF7DBF809F051FE0128DB
:101830002CD006F095FF0428044630D005283BD074
:10184000032831D009F0FCFD8378022B11D1022C42
:1018500041D0062C0DD10CF093FBB0EE409A0CF069
:10186000A7FBF0EE400AB0EE490A04F0C1F906F019
:1018700057FF6420FCF7B4F8ADE7B0EE480A01204A
:1018800000F0B6FD09F024FE0128D2D102F070FC70
:1018900006F046FF06F064FF04280446CED10AF0A5
:1018A0003FFC06F03DFF03E009F022FA06F038FFA6
:1018B00009F0C6FD8378DCE70AF02AFCB0EE409A16
:1018C0000AF02EFCF0EE400AB0EE490A04F090F95E
:1018D00006F026FFECE70CF053FB06F021FFC8E70B
:1018E000401A0020D0EC0208CDCC4C3E0000000095
:1018F00000B5ADF5137DFCF75BFDFBF7B1FD42F2E2
:101900001070FCF76DF80EF07BFD1C4B20211022AF
